{
    "contractName": "AIAgentController",
    "abi": [
        {
            "inputs": [],
            "stateMutability": "nonpayable",
            "type": "constructor"
        },
        {
            "inputs": [],
            "name": "AccessControlBadConfirmation",
            "type": "error"
        },
        {
            "inputs": [
                {
                    "internalType": "address",
                    "name": "account",
                    "type": "address"
                },
                {
                    "internalType": "bytes32",
                    "name": "neededRole",
                    "type": "bytes32"
                }
            ],
            "name": "AccessControlUnauthorizedAccount",
            "type": "error"
        },
        {
            "inputs": [],
            "name": "EnforcedPause",
            "type": "error"
        },
        {
            "inputs": [],
            "name": "ExpectedPause",
            "type": "error"
        },
        {
            "inputs": [],
            "name": "InsufficientValue",
            "type": "error"
        },
        {
            "inputs": [],
            "name": "InvalidExpiry",
            "type": "error"
        },
        {
            "inputs": [],
            "name": "InvalidRequest",
            "type": "error"
        },
        {
            "inputs": [],
            "name": "RateLimitExceeded",
            "type": "error"
        },
        {
            "inputs": [],
            "name": "ReentrancyGuardReentrantCall",
            "type": "error"
        },
        {
            "inputs": [],
            "name": "RequestAlreadyExecuted",
            "type": "error"
        },
        {
            "inputs": [],
            "name": "RequestExpired",
            "type": "error"
        },
        {
            "inputs": [],
            "name": "UnauthorizedAgent",
            "type": "error"
        },
        {
            "anonymous": false,
            "inputs": [
                {
                    "indexed": true,
                    "internalType": "address",
                    "name": "agent",
                    "type": "address"
                },
                {
                    "indexed": false,
                    "internalType": "string",
                    "name": "agentType",
                    "type": "string"
                }
            ],
            "name": "AgentAuthorized",
            "type": "event"
        },
        {
            "anonymous": false,
            "inputs": [
                {
                    "indexed": true,
                    "internalType": "address",
                    "name": "agent",
                    "type": "address"
                }
            ],
            "name": "AgentRevoked",
            "type": "event"
        },
        {
            "anonymous": false,
            "inputs": [
                {
                    "indexed": true,
                    "internalType": "address",
                    "name": "admin",
                    "type": "address"
                }
            ],
            "name": "EmergencyPaused",
            "type": "event"
        },
        {
            "anonymous": false,
            "inputs": [
                {
                    "indexed": false,
                    "internalType": "address",
                    "name": "account",
                    "type": "address"
                }
            ],
            "name": "Paused",
            "type": "event"
        },
        {
            "anonymous": false,
            "inputs": [
                {
                    "indexed": true,
                    "internalType": "bytes32",
                    "name": "requestId",
                    "type": "bytes32"
                },
                {
                    "indexed": true,
                    "internalType": "address",
                    "name": "user",
                    "type": "address"
                }
            ],
            "name": "RequestCancelled",
            "type": "event"
        },
        {
            "anonymous": false,
            "inputs": [
                {
                    "indexed": true,
                    "internalType": "bytes32",
                    "name": "requestId",
                    "type": "bytes32"
                },
                {
                    "indexed": true,
                    "internalType": "address",
                    "name": "user",
                    "type": "address"
                },
                {
                    "indexed": true,
                    "internalType": "address",
                    "name": "agent",
                    "type": "address"
                },
                {
                    "indexed": false,
                    "internalType": "enum AIAgentController.RequestType",
                    "name": "requestType",
                    "type": "uint8"
                },
                {
                    "indexed": false,
                    "internalType": "uint256",
                    "name": "expiry",
                    "type": "uint256"
                }
            ],
            "name": "RequestCreated",
            "type": "event"
        },
        {
            "anonymous": false,
            "inputs": [
                {
                    "indexed": true,
                    "internalType": "bytes32",
                    "name": "requestId",
                    "type": "bytes32"
                },
                {
                    "indexed": false,
                    "internalType": "bool",
                    "name": "success",
                    "type": "bool"
                },
                {
                    "indexed": false,
                    "internalType": "bytes",
                    "name": "returnData",
                    "type": "bytes"
                }
            ],
            "name": "RequestExecuted",
            "type": "event"
        },
        {
            "anonymous": false,
            "inputs": [
                {
                    "indexed": true,
                    "internalType": "bytes32",
                    "name": "role",
                    "type": "bytes32"
                },
                {
                    "indexed": true,
                    "internalType": "bytes32",
                    "name": "previousAdminRole",
                    "type": "bytes32"
                },
                {
                    "indexed": true,
                    "internalType": "bytes32",
                    "name": "newAdminRole",
                    "type": "bytes32"
                }
            ],
            "name": "RoleAdminChanged",
            "type": "event"
        },
        {
            "anonymous": false,
            "inputs": [
                {
                    "indexed": true,
                    "internalType": "bytes32",
                    "name": "role",
                    "type": "bytes32"
                },
                {
                    "indexed": true,
                    "internalType": "address",
                    "name": "account",
                    "type": "address"
                },
                {
                    "indexed": true,
                    "internalType": "address",
                    "name": "sender",
                    "type": "address"
                }
            ],
            "name": "RoleGranted",
            "type": "event"
        },
        {
            "anonymous": false,
            "inputs": [
                {
                    "indexed": true,
                    "internalType": "bytes32",
                    "name": "role",
                    "type": "bytes32"
                },
                {
                    "indexed": true,
                    "internalType": "address",
                    "name": "account",
                    "type": "address"
                },
                {
                    "indexed": true,
                    "internalType": "address",
                    "name": "sender",
                    "type": "address"
                }
            ],
            "name": "RoleRevoked",
            "type": "event"
        },
        {
            "anonymous": false,
            "inputs": [
                {
                    "indexed": false,
                    "internalType": "address",
                    "name": "account",
                    "type": "address"
                }
            ],
            "name": "Unpaused",
            "type": "event"
        },
        {
            "stateMutability": "payable",
            "type": "fallback"
        },
        {
            "inputs": [],
            "name": "AGENT_ROLE",
            "outputs": [
                {
                    "internalType": "bytes32",
                    "name": "",
                    "type": "bytes32"
                }
            ],
            "stateMutability": "view",
            "type": "function"
        },
        {
            "inputs": [],
            "name": "DEFAULT_ADMIN_ROLE",
            "outputs": [
                {
                    "internalType": "bytes32",
                    "name": "",
                    "type": "bytes32"
                }
            ],
            "stateMutability": "view",
            "type": "function"
        },
        {
            "inputs": [],
            "name": "EMERGENCY_ROLE",
            "outputs": [
                {
                    "internalType": "bytes32",
                    "name": "",
                    "type": "bytes32"
                }
            ],
            "stateMutability": "view",
            "type": "function"
        },
        {
            "inputs": [],
            "name": "EXECUTOR_ROLE",
            "outputs": [
                {
                    "internalType": "bytes32",
                    "name": "",
                    "type": "bytes32"
                }
            ],
            "stateMutability": "view",
            "type": "function"
        },
        {
            "inputs": [],
            "name": "MAX_REQUESTS_PER_HOUR",
            "outputs": [
                {
                    "internalType": "uint256",
                    "name": "",
                    "type": "uint256"
                }
            ],
            "stateMutability": "view",
            "type": "function"
        },
        {
            "inputs": [
                {
                    "internalType": "address",
                    "name": "",
                    "type": "address"
                }
            ],
            "name": "agentRequestCounts",
            "outputs": [
                {
                    "internalType": "uint256",
                    "name": "",
                    "type": "uint256"
                }
            ],
            "stateMutability": "view",
            "type": "function"
        },
        {
            "inputs": [
                {
                    "internalType": "bytes32",
                    "name": "",
                    "type": "bytes32"
                }
            ],
            "name": "agentRequests",
            "outputs": [
                {
                    "internalType": "address",
                    "name": "user",
                    "type": "address"
                },
                {
                    "internalType": "address",
                    "name": "agent",
                    "type": "address"
                },
                {
                    "internalType": "bytes",
                    "name": "actionData",
                    "type": "bytes"
                },
                {
                    "internalType": "uint256",
                    "name": "timestamp",
                    "type": "uint256"
                },
                {
                    "internalType": "uint256",
                    "name": "expiry",
                    "type": "uint256"
                },
                {
                    "internalType": "bool",
                    "name": "executed",
                    "type": "bool"
                },
                {
                    "internalType": "enum AIAgentController.RequestType",
                    "name": "requestType",
                    "type": "uint8"
                },
                {
                    "internalType": "uint256",
                    "name": "value",
                    "type": "uint256"
                }
            ],
            "stateMutability": "view",
            "type": "function"
        },
        {
            "inputs": [
                {
                    "internalType": "address",
                    "name": "",
                    "type": "address"
                }
            ],
            "name": "agentTypes",
            "outputs": [
                {
                    "internalType": "string",
                    "name": "",
                    "type": "string"
                }
            ],
            "stateMutability": "view",
            "type": "function"
        },
        {
            "inputs": [
                {
                    "internalType": "address",
                    "name": "agent",
                    "type": "address"
                },
                {
                    "internalType": "string",
                    "name": "agentType",
                    "type": "string"
                }
            ],
            "name": "authorizeAgent",
            "outputs": [],
            "stateMutability": "nonpayable",
            "type": "function"
        },
        {
            "inputs": [
                {
                    "internalType": "address",
                    "name": "",
                    "type": "address"
                }
            ],
            "name": "authorizedAgents",
            "outputs": [
                {
                    "internalType": "bool",
                    "name": "",
                    "type": "bool"
                }
            ],
            "stateMutability": "view",
            "type": "function"
        },
        {
            "inputs": [
                {
                    "internalType": "bytes32",
                    "name": "requestId",
                    "type": "bytes32"
                }
            ],
            "name": "cancelRequest",
            "outputs": [],
            "stateMutability": "nonpayable",
            "type": "function"
        },
        {
            "inputs": [
                {
                    "internalType": "address",
                    "name": "user",
                    "type": "address"
                }
            ],
            "name": "checkRateLimit",
            "outputs": [
                {
                    "internalType": "bool",
                    "name": "canMakeRequest",
                    "type": "bool"
                }
            ],
            "stateMutability": "view",
            "type": "function"
        },
        {
            "inputs": [
                {
                    "internalType": "address",
                    "name": "user",
                    "type": "address"
                },
                {
                    "internalType": "bytes",
                    "name": "actionData",
                    "type": "bytes"
                },
                {
                    "internalType": "enum AIAgentController.RequestType",
                    "name": "requestType",
                    "type": "uint8"
                },
                {
                    "internalType": "uint256",
                    "name": "expiry",
                    "type": "uint256"
                }
            ],
            "name": "createAgentRequest",
            "outputs": [
                {
                    "internalType": "bytes32",
                    "name": "",
                    "type": "bytes32"
                }
            ],
            "stateMutability": "payable",
            "type": "function"
        },
        {
            "inputs": [],
            "name": "emergencyPause",
            "outputs": [],
            "stateMutability": "nonpayable",
            "type": "function"
        },
        {
            "inputs": [
                {
                    "internalType": "bytes32",
                    "name": "requestId",
                    "type": "bytes32"
                }
            ],
            "name": "executeAgentRequest",
            "outputs": [
                {
                    "internalType": "bool",
                    "name": "success",
                    "type": "bool"
                },
                {
                    "internalType": "bytes",
                    "name": "returnData",
                    "type": "bytes"
                }
            ],
            "stateMutability": "nonpayable",
            "type": "function"
        },
        {
            "inputs": [
                {
                    "internalType": "address",
                    "name": "agent",
                    "type": "address"
                }
            ],
            "name": "getAgentInfo",
            "outputs": [
                {
                    "internalType": "bool",
                    "name": "authorized",
                    "type": "bool"
                },
                {
                    "internalType": "string",
                    "name": "agentType",
                    "type": "string"
                },
                {
                    "internalType": "uint256",
                    "name": "requestCount",
                    "type": "uint256"
                }
            ],
            "stateMutability": "view",
            "type": "function"
        },
        {
            "inputs": [
                {
                    "internalType": "bytes32",
                    "name": "requestId",
                    "type": "bytes32"
                }
            ],
            "name": "getRequest",
            "outputs": [
                {
                    "internalType": "address",
                    "name": "user",
                    "type": "address"
                },
                {
                    "internalType": "address",
                    "name": "agent",
                    "type": "address"
                },
                {
                    "internalType": "enum AIAgentController.RequestType",
                    "name": "requestType",
                    "type": "uint8"
                },
                {
                    "internalType": "uint256",
                    "name": "timestamp",
                    "type": "uint256"
                },
                {
                    "internalType": "uint256",
                    "name": "expiry",
                    "type": "uint256"
                },
                {
                    "internalType": "bool",
                    "name": "executed",
                    "type": "bool"
                },
                {
                    "internalType": "uint256",
                    "name": "value",
                    "type": "uint256"
                }
            ],
            "stateMutability": "view",
            "type": "function"
        },
        {
            "inputs": [
                {
                    "internalType": "bytes32",
                    "name": "role",
                    "type": "bytes32"
                }
            ],
            "name": "getRoleAdmin",
            "outputs": [
                {
                    "internalType": "bytes32",
                    "name": "",
                    "type": "bytes32"
                }
            ],
            "stateMutability": "view",
            "type": "function"
        },
        {
            "inputs": [
                {
                    "internalType": "bytes32",
                    "name": "role",
                    "type": "bytes32"
                },
                {
                    "internalType": "address",
                    "name": "account",
                    "type": "address"
                }
            ],
            "name": "grantRole",
            "outputs": [],
            "stateMutability": "nonpayable",
            "type": "function"
        },
        {
            "inputs": [
                {
                    "internalType": "bytes32",
                    "name": "role",
                    "type": "bytes32"
                },
                {
                    "internalType": "address",
                    "name": "account",
                    "type": "address"
                }
            ],
            "name": "hasRole",
            "outputs": [
                {
                    "internalType": "bool",
                    "name": "",
                    "type": "bool"
                }
            ],
            "stateMutability": "view",
            "type": "function"
        },
        {
            "inputs": [],
            "name": "paused",
            "outputs": [
                {
                    "internalType": "bool",
                    "name": "",
                    "type": "bool"
                }
            ],
            "stateMutability": "view",
            "type": "function"
        },
        {
            "inputs": [
                {
                    "internalType": "bytes32",
                    "name": "role",
                    "type": "bytes32"
                },
                {
                    "internalType": "address",
                    "name": "callerConfirmation",
                    "type": "address"
                }
            ],
            "name": "renounceRole",
            "outputs": [],
            "stateMutability": "nonpayable",
            "type": "function"
        },
        {
            "inputs": [
                {
                    "internalType": "address",
                    "name": "agent",
                    "type": "address"
                }
            ],
            "name": "revokeAgent",
            "outputs": [],
            "stateMutability": "nonpayable",
            "type": "function"
        },
        {
            "inputs": [
                {
                    "internalType": "bytes32",
                    "name": "role",
                    "type": "bytes32"
                },
                {
                    "internalType": "address",
                    "name": "account",
                    "type": "address"
                }
            ],
            "name": "revokeRole",
            "outputs": [],
            "stateMutability": "nonpayable",
            "type": "function"
        },
        {
            "inputs": [
                {
                    "internalType": "bytes4",
                    "name": "interfaceId",
                    "type": "bytes4"
                }
            ],
            "name": "supportsInterface",
            "outputs": [
                {
                    "internalType": "bool",
                    "name": "",
                    "type": "bool"
                }
            ],
            "stateMutability": "view",
            "type": "function"
        },
        {
            "inputs": [],
            "name": "unpause",
            "outputs": [],
            "stateMutability": "nonpayable",
            "type": "function"
        },
        {
            "inputs": [
                {
                    "internalType": "address",
                    "name": "",
                    "type": "address"
                },
                {
                    "internalType": "uint256",
                    "name": "",
                    "type": "uint256"
                }
            ],
            "name": "userRequestsPerHour",
            "outputs": [
                {
                    "internalType": "uint256",
                    "name": "",
                    "type": "uint256"
                }
            ],
            "stateMutability": "view",
            "type": "function"
        },
        {
            "stateMutability": "payable",
            "type": "receive"
        }
    ],
    "bytecode": "60806040523461003a57600180556100163361003e565b50610020336100b4565b5061002a33610147565b5060405161173a90816101db8239f35b5f80fd5b6001600160a01b0381165f9081525f5160206119755f395f51905f52602052604090205460ff166100af576001600160a01b03165f8181525f5160206119755f395f51905f5260205260408120805460ff191660011790553391905f5160206119155f395f51905f528180a4600190565b505f90565b6001600160a01b0381165f9081525f5160206119355f395f51905f52602052604090205460ff166100af576001600160a01b03165f8181525f5160206119355f395f51905f5260205260408120805460ff191660011790553391907fd8aa0f3194971a2a116679f7c2090f6939c8d4e01a2a8d7e41d55e5351469e63905f5160206119155f395f51905f529080a4600190565b6001600160a01b0381165f9081525f5160206119555f395f51905f52602052604090205460ff166100af576001600160a01b03165f8181525f5160206119555f395f51905f5260205260408120805460ff191660011790553391907fbf233dd2aafeb4d50879c4aa5c81e96d92f6e6945c906a58f9f2d1c1631b4b26905f5160206119155f395f51905f529080a460019056fe6080806040526004361015610011575b005b5f3560e01c90816301ffc9a7146111515750806307bd026514611117578063152052b01461109a578063166314f214610ed557806320df435914610e9b57806322459e1814610e74578063248a9ca314610e425780632f2ff15d14610e0557806336568abe14610dc1578063384e468614610d135780633f4ba83a14610cad5780635012554614610bda57806351858e2714610af75780635c975abb14610ad55780635d09426614610aba5780636934535e14610a71578063774f010914610a215780637a83a92f146109e95780637da6ac0d1461091957806391d14854146108d1578063a217fddf146108b7578063bc25b83814610873578063c218b07c146106bb578063d547741f14610679578063dea7e84f14610299578063efd760651461025c5763fb1e61ca1461014257005b34610258576020366003190112610258576004355f52600360205260405f206040519061016e82611248565b80546001600160a01b039081168352600182015416602083019081529061019760028201611287565b60408401526003810154926060810193845260048201549160808201928352600581015492600660a084019260ff8616151584526101df60ff60c087019760081c16876113e5565b015460e08401908152925194519351956001600160a01b03958616959094169360068710156102445760e09661022e915192519351151594519560405197885260208801526040870190611327565b6060850152608084015260a083015260c0820152f35b634e487b7160e01b5f52602160045260245ffd5b5f80fd5b34610258576020366003190112610258576001600160a01b0361027d6111a4565b165f526004602052602060ff60405f2054166040519015158152f35b6080366003190112610258576102ad6111a4565b60243567ffffffffffffffff8111610258576102cd903690600401611334565b909160443590600682101561025857335f9081525f5160206116e55f395f51905f5260205260409020546064359060ff16156106555761030b6113f1565b6001600160a01b0382169182156106465742821180159061061d575b61060f57610e10420490835f52600760205260405f20825f52602052600a60405f2054101561060057335f52600560205260405f20805490610368826113d7565b90556103bb604060488151809460208201966bffffffffffffffffffffffff199060601b1687523360601b60348301528b8d848401378b8201904284830152606882015203016020810184520182611265565b51902094604051906103cc82611248565b84825260208201903382526103e081611362565b986103ee6040519a8b611265565b818a52368282011161025857815f92602092838d01378a0101526040820197885260608201974289526080830185815260a08401995f8b5260c08501926104358a856113e5565b3460e087019081525f8c8152600360205260409020965187546001600160a01b03199081166001600160a01b039283161789559651600189018054909816911617909555518051600287019167ffffffffffffffff82116105ec576104a48261049e8554611210565b85611394565b602090601f8311600114610589576104d392915f918361057e575b50508160011b915f199060031b1c19161790565b90555b516003850155516004840155600583019851151560ff80198b54169116178955519060068210156102445760209860069261ff0082549160081b169061ff00191617905551910155825f526007865260405f20905f52855260405f2061053c81546113d7565b905561054b6040518094611327565b84830152827f1d327f7da4503e40d49300ba7b5a10e04a240facac7c54200f7af4e78b5bf73060403394a4604051908152f35b015190508f806104bf565b90601f19831691845f52815f20925f5b8181106105d457509084600195949392106105bc575b505050811b0190556104d6565b01515f1960f88460031b161c191690558e80806105af565b92936020600181928786015181550195019301610599565b634e487b7160e01b5f52604160045260245ffd5b63a74c1c5f60e01b5f5260045ffd5b62d36c8560e81b5f5260045ffd5b50620151804201804211610632578211610327565b634e487b7160e01b5f52601160045260245ffd5b6341abc80160e01b5f5260045ffd5b63e2517d3f60e01b5f52336004525f5160206116c55f395f51905f5260245260445ffd5b346102585760403660031901126102585761000f6004356106986111ba565b906106b66106b1825f525f602052600160405f20015490565b61145b565b611644565b34610258576040366003190112610258576106d46111a4565b60243567ffffffffffffffff8111610258576106f4903690600401611334565b906106fd61140c565b6001600160a01b03831692831561064657835f52600460205260405f20600160ff19825416179055835f52600660205260405f2067ffffffffffffffff84116105ec576107548461074e8354611210565b83611394565b5f601f85116001146107e7576040928594926107aa867fd3bf918bec376816d150c113f35ece1b7e89439c3fbae63a1076141beb9993d1986107b1955f916107dc575b508160011b915f199060031b1c19161790565b9055611493565b5082825193849260208452816020850152848401375f828201840152601f01601f19168101030190a2005b90508601358b610797565b601f19851690825f5260205f20915f5b81811061085b5750926107b19260409592887fd3bf918bec376816d150c113f35ece1b7e89439c3fbae63a1076141beb9993d199989610610842575b5050600186811b019055611493565b8501355f19600389901b60f8161c191690558880610833565b9192602060018192868a0135815501940192016107f7565b34610258576040366003190112610258576001600160a01b036108946111a4565b165f52600760205260405f206024355f52602052602060405f2054604051908152f35b34610258575f3660031901126102585760206040515f8152f35b34610258576040366003190112610258576108ea6111ba565b6004355f525f60205260405f209060018060a01b03165f52602052602060ff60405f2054166040519015158152f35b34610258576020366003190112610258576109326111a4565b61093a61140c565b61097f60018060a01b03821691825f52600460205260405f2060ff198154169055825f52600660205260405f206109718154611210565b90816109a6575b50506115b3565b507f1d2ac3af5c639e57ee8f25bc162ea13a1ef8a663c92a4f3e33f126dd2d4feba45f80a2005b81601f5f93116001146109bd5750555b8380610978565b818352602083206109d991601f0160051c81019060010161137e565b80825281602081209155556109b6565b34610258576020366003190112610258576001600160a01b03610a0a6111a4565b165f526005602052602060405f2054604051908152f35b34610258576020366003190112610258576001600160a01b03610a426111a4565b165f526006602052610a6d610a5960405f20611287565b6040519182916020835260208301906111d0565b0390f35b34610258576020366003190112610258576001600160a01b03610a926111a4565b165f52600760205260405f20610e1042045f526020526020600a60405f205410604051908152f35b34610258575f366003190112610258576020604051600a8152f35b34610258575f36600319011261025857602060ff600254166040519015158152f35b34610258575f36600319011261025857335f9081527f3c1b1854ab1360abbb06c8d4c6b2672d4b8cedc5eff522ab19e51d5cb8fdbd46602052604090205460ff1615610ba357610b456113f1565b600160ff1960025416176002557f62e78cea01bee320cd4e420270b5ea74000d11b0c9f74754ebdbfc544b05a2586020604051338152a1337fb8fad2fa0ed7a383e747c309ef2c4391d7b65592a48893e57ccc1fab707914565f80a2005b63e2517d3f60e01b5f52336004527fbf233dd2aafeb4d50879c4aa5c81e96d92f6e6945c906a58f9f2d1c1631b4b2660245260445ffd5b34610258576020366003190112610258576004355f81815260036020526040902080546001600160a01b03169033829003610c9f57600581019081549160ff8316610c9057600160069360ff191617905501548015918215610c5f575b33847f3667686a5d1134075618aaef5b7a2c48b739b95068ebf8770322f60dec3148c75f80a3005b5f928392839283928390610c87575bf115610c7c57818080610c37565b6040513d5f823e3d90fd5b506108fc610c6e565b636b78fca360e11b5f5260045ffd5b624b0ebd60e41b5f5260045ffd5b34610258575f36600319011261025857610cc561140c565b60025460ff811615610d045760ff19166002557f5db9ee0a495bf2e6ff9c91a7834c1ba4fdd244a5e8aa4e537bd38aeae4b073aa6020604051338152a1005b638dfc202b60e01b5f5260045ffd5b34610258576020366003190112610258576004355f908152600360205260409020805460018201546001600160a01b0390811692911690610d5660028201611287565b610db86003830154926004810154610d9260066005840154930154946040519889988952602089015261010060408901526101008801906111d0565b946060870152608086015260ff8116151560a086015260ff60c086019160081c16611327565b60e08301520390f35b3461025857604036600319011261025857610dda6111ba565b336001600160a01b03821603610df65761000f90600435611644565b63334bd91960e11b5f5260045ffd5b346102585760403660031901126102585761000f600435610e246111ba565b90610e3d6106b1825f525f602052600160405f20015490565b61152b565b34610258576020366003190112610258576020610e6c6004355f525f602052600160405f20015490565b604051908152f35b34610258575f3660031901126102585760206040515f5160206116c55f395f51905f528152f35b34610258575f3660031901126102585760206040517fbf233dd2aafeb4d50879c4aa5c81e96d92f6e6945c906a58f9f2d1c1631b4b268152f35b346102585760203660031901126102585760043560026001541461108b576002600155610f006113f1565b805f52600360205260405f2060018060a01b0381541633141580611053575b610c9f5760058101805460ff8116610c9057600483015442116110445760019060ff1916179055600260068201549101604051905f90805490610f6182611210565b916001811690811561102d5750600114610ffb575b505091815f939284930391305af13d15610ff3573d91610f9583611362565b92610fa36040519485611265565b83523d5f602085013e5b7f5e221ead4e112d249a10748a32e92cf74b9bdd9d4891c84015e925e4c529b11360405180610fdd8686836111f4565b0390a260018055610a6d604051928392836111f4565b606091610fad565b9091505f5260205f205f905b8282106110195750508101815f610f76565b600181602092548487015201910190611007565b60ff1916855250508015150282019050815f610f76565b637f780e6960e11b5f5260045ffd5b50335f9081527fdae2aa361dfd1ca020a396615627d436107c35eff9fe7738a3512819782d7069602052604090205460ff1615610f1f565b633ee5aeb560e01b5f5260045ffd5b34610258576020366003190112610258576001600160a01b036110bb6111a4565b16805f52600460205260ff60405f205416815f52600660205260405f20915f5260056020526110ee60405f205492611287565b9161110d604051938493151584526060602085015260608401906111d0565b9060408301520390f35b34610258575f3660031901126102585760206040517fd8aa0f3194971a2a116679f7c2090f6939c8d4e01a2a8d7e41d55e5351469e638152f35b34610258576020366003190112610258576004359063ffffffff60e01b821680920361025857602091637965db0b60e01b8114908115611193575b5015158152f35b6301ffc9a760e01b1490508361118c565b600435906001600160a01b038216820361025857565b602435906001600160a01b038216820361025857565b805180835260209291819084018484015e5f828201840152601f01601f1916010190565b60409061120d93921515815281602082015201906111d0565b90565b90600182811c9216801561123e575b602083101461122a57565b634e487b7160e01b5f52602260045260245ffd5b91607f169161121f565b610100810190811067ffffffffffffffff8211176105ec57604052565b90601f8019910116810190811067ffffffffffffffff8211176105ec57604052565b9060405191825f82549261129a84611210565b808452936001811690811561130557506001146112c1575b506112bf92500383611265565b565b90505f9291925260205f20905f915b8183106112e95750509060206112bf928201015f6112b2565b60209193508060019154838589010152019101909184926112d0565b9050602092506112bf94915060ff191682840152151560051b8201015f6112b2565b9060068210156102445752565b9181601f840112156102585782359167ffffffffffffffff8311610258576020838186019501011161025857565b67ffffffffffffffff81116105ec57601f01601f191660200190565b818110611389575050565b5f815560010161137e565b9190601f81116113a357505050565b6112bf925f5260205f20906020601f840160051c830193106113cd575b601f0160051c019061137e565b90915081906113c0565b5f1981146106325760010190565b60068210156102445752565b60ff600254166113fd57565b63d93c066560e01b5f5260045ffd5b335f9081527fad3228b676f7d3cd4284a5443f17f1962b36e491b30a40b2405849e597ba5fb5602052604090205460ff161561144457565b63e2517d3f60e01b5f52336004525f60245260445ffd5b5f8181526020818152604080832033845290915290205460ff161561147d5750565b63e2517d3f60e01b5f523360045260245260445ffd5b6001600160a01b0381165f9081525f5160206116e55f395f51905f52602052604090205460ff16611526576001600160a01b03165f8181525f5160206116e55f395f51905f5260205260408120805460ff191660011790553391905f5160206116c55f395f51905f52907f2f8788117e7eff1d82e926ec794901d17c78024a50270940304540a733656f0d9080a4600190565b505f90565b5f818152602081815260408083206001600160a01b038616845290915290205460ff166115ad575f818152602081815260408083206001600160a01b0395909516808452949091528120805460ff19166001179055339291907f2f8788117e7eff1d82e926ec794901d17c78024a50270940304540a733656f0d9080a4600190565b50505f90565b6001600160a01b0381165f9081525f5160206116e55f395f51905f52602052604090205460ff1615611526576001600160a01b03165f8181525f5160206116e55f395f51905f5260205260408120805460ff191690553391905f5160206116c55f395f51905f52907ff6391f5c32d9c69d2a47ea670b442974b53935d1edc7fd64eb21e047a839171b9080a4600190565b5f818152602081815260408083206001600160a01b038616845290915290205460ff16156115ad575f818152602081815260408083206001600160a01b0395909516808452949091528120805460ff19169055339291907ff6391f5c32d9c69d2a47ea670b442974b53935d1edc7fd64eb21e047a839171b9080a460019056fecab5a0bfe0b79d2c4b1c2e02599fa044d115b7511f9659307cb4276950967709e298cb3514b0702cec56ac2053c1ecb2187cfdc8a325f22a672bc5027eadc9e2a264697066735822122010a675f8f1e11d80ffe8cd313d18af34862a42f8020145d4dd5baa496655e83d64736f6c634300081e00332f8788117e7eff1d82e926ec794901d17c78024a50270940304540a733656f0ddae2aa361dfd1ca020a396615627d436107c35eff9fe7738a3512819782d70693c1b1854ab1360abbb06c8d4c6b2672d4b8cedc5eff522ab19e51d5cb8fdbd46ad3228b676f7d3cd4284a5443f17f1962b36e491b30a40b2405849e597ba5fb5",
    "sourcePath": "/home/phinelipy/Work/hackathons/ethGlobal/EthOnline2025/safestake.ai/smart-contracts/contracts/AIAgentController.sol",
    "compiler": {
        "name": "solc",
        "version": "0.8.30+commit.73712a01"
    },
    "functionHashes": {
        "AGENT_ROLE()": "22459e18",
        "DEFAULT_ADMIN_ROLE()": "a217fddf",
        "EMERGENCY_ROLE()": "20df4359",
        "EXECUTOR_ROLE()": "07bd0265",
        "MAX_REQUESTS_PER_HOUR()": "5d094266",
        "agentRequestCounts(address)": "7a83a92f",
        "agentRequests(bytes32)": "384e4686",
        "agentTypes(address)": "774f0109",
        "authorizeAgent(address,string)": "c218b07c",
        "authorizedAgents(address)": "efd76065",
        "cancelRequest(bytes32)": "50125546",
        "checkRateLimit(address)": "6934535e",
        "createAgentRequest(address,bytes,uint8,uint256)": "dea7e84f",
        "emergencyPause()": "51858e27",
        "executeAgentRequest(bytes32)": "166314f2",
        "getAgentInfo(address)": "152052b0",
        "getRequest(bytes32)": "fb1e61ca",
        "getRoleAdmin(bytes32)": "248a9ca3",
        "grantRole(bytes32,address)": "2f2ff15d",
        "hasRole(bytes32,address)": "91d14854",
        "paused()": "5c975abb",
        "renounceRole(bytes32,address)": "36568abe",
        "revokeAgent(address)": "7da6ac0d",
        "revokeRole(bytes32,address)": "d547741f",
        "supportsInterface(bytes4)": "01ffc9a7",
        "unpause()": "3f4ba83a",
        "userRequestsPerHour(address,uint256)": "bc25b838"
    },
    "gasEstimates": {
        "creation": {
            "codeDepositCost": "1189200",
            "executionCost": "infinite",
            "totalCost": "infinite"
        },
        "external": {
            "": "653",
            "AGENT_ROLE()": "292",
            "DEFAULT_ADMIN_ROLE()": "592",
            "EMERGENCY_ROLE()": "241",
            "EXECUTOR_ROLE()": "175",
            "MAX_REQUESTS_PER_HOUR()": "461",
            "agentRequestCounts(address)": "2780",
            "agentRequests(bytes32)": "infinite",
            "agentTypes(address)": "infinite",
            "authorizeAgent(address,string)": "infinite",
            "authorizedAgents(address)": "2968",
            "cancelRequest(bytes32)": "infinite",
            "checkRateLimit(address)": "2810",
            "createAgentRequest(address,bytes,uint8,uint256)": "infinite",
            "emergencyPause()": "31119",
            "executeAgentRequest(bytes32)": "infinite",
            "getAgentInfo(address)": "infinite",
            "getRequest(bytes32)": "infinite",
            "getRoleAdmin(bytes32)": "2473",
            "grantRole(bytes32,address)": "33421",
            "hasRole(bytes32,address)": "2902",
            "paused()": "2554",
            "renounceRole(bytes32,address)": "29011",
            "revokeAgent(address)": "infinite",
            "revokeRole(bytes32,address)": "33770",
            "supportsInterface(bytes4)": "270",
            "unpause()": "27837",
            "userRequestsPerHour(address,uint256)": "2932"
        }
    }
}