{
    "contractName": "StakingProxy",
    "abi": [
        {
            "inputs": [
                {
                    "internalType": "address",
                    "name": "_collateralManager",
                    "type": "address"
                },
                {
                    "internalType": "address",
                    "name": "_aiController",
                    "type": "address"
                },
                {
                    "internalType": "address",
                    "name": "_protocolTreasury",
                    "type": "address"
                }
            ],
            "stateMutability": "nonpayable",
            "type": "constructor"
        },
        {
            "inputs": [],
            "name": "InsufficientCollateral",
            "type": "error"
        },
        {
            "inputs": [],
            "name": "InsufficientStake",
            "type": "error"
        },
        {
            "inputs": [],
            "name": "InvalidAmount",
            "type": "error"
        },
        {
            "inputs": [],
            "name": "InvalidRewardRate",
            "type": "error"
        },
        {
            "inputs": [],
            "name": "OnlyAIController",
            "type": "error"
        },
        {
            "inputs": [
                {
                    "internalType": "address",
                    "name": "owner",
                    "type": "address"
                }
            ],
            "name": "OwnableInvalidOwner",
            "type": "error"
        },
        {
            "inputs": [
                {
                    "internalType": "address",
                    "name": "account",
                    "type": "address"
                }
            ],
            "name": "OwnableUnauthorizedAccount",
            "type": "error"
        },
        {
            "inputs": [],
            "name": "ReentrancyGuardReentrantCall",
            "type": "error"
        },
        {
            "inputs": [
                {
                    "internalType": "address",
                    "name": "token",
                    "type": "address"
                }
            ],
            "name": "SafeERC20FailedOperation",
            "type": "error"
        },
        {
            "inputs": [],
            "name": "StakeNotActive",
            "type": "error"
        },
        {
            "inputs": [],
            "name": "TokenNotSupported",
            "type": "error"
        },
        {
            "inputs": [],
            "name": "UnstakeDelayNotMet",
            "type": "error"
        },
        {
            "inputs": [],
            "name": "UnstakeNotRequested",
            "type": "error"
        },
        {
            "anonymous": false,
            "inputs": [
                {
                    "indexed": true,
                    "internalType": "address",
                    "name": "user",
                    "type": "address"
                },
                {
                    "indexed": true,
                    "internalType": "address",
                    "name": "token",
                    "type": "address"
                },
                {
                    "indexed": false,
                    "internalType": "uint256",
                    "name": "amount",
                    "type": "uint256"
                },
                {
                    "indexed": false,
                    "internalType": "uint256",
                    "name": "sourceChainId",
                    "type": "uint256"
                },
                {
                    "indexed": false,
                    "internalType": "bytes32",
                    "name": "bridgeId",
                    "type": "bytes32"
                }
            ],
            "name": "CrossChainStakeExecuted",
            "type": "event"
        },
        {
            "anonymous": false,
            "inputs": [
                {
                    "indexed": true,
                    "internalType": "address",
                    "name": "previousOwner",
                    "type": "address"
                },
                {
                    "indexed": true,
                    "internalType": "address",
                    "name": "newOwner",
                    "type": "address"
                }
            ],
            "name": "OwnershipTransferred",
            "type": "event"
        },
        {
            "anonymous": false,
            "inputs": [
                {
                    "indexed": false,
                    "internalType": "uint256",
                    "name": "oldRate",
                    "type": "uint256"
                },
                {
                    "indexed": false,
                    "internalType": "uint256",
                    "name": "newRate",
                    "type": "uint256"
                }
            ],
            "name": "RewardRateUpdated",
            "type": "event"
        },
        {
            "anonymous": false,
            "inputs": [
                {
                    "indexed": true,
                    "internalType": "address",
                    "name": "user",
                    "type": "address"
                },
                {
                    "indexed": false,
                    "internalType": "uint256",
                    "name": "rewards",
                    "type": "uint256"
                }
            ],
            "name": "RewardsClaimed",
            "type": "event"
        },
        {
            "anonymous": false,
            "inputs": [
                {
                    "indexed": true,
                    "internalType": "address",
                    "name": "user",
                    "type": "address"
                },
                {
                    "indexed": true,
                    "internalType": "address",
                    "name": "token",
                    "type": "address"
                },
                {
                    "indexed": false,
                    "internalType": "uint256",
                    "name": "amount",
                    "type": "uint256"
                },
                {
                    "indexed": false,
                    "internalType": "uint256",
                    "name": "liquidTokens",
                    "type": "uint256"
                }
            ],
            "name": "StakeExecuted",
            "type": "event"
        },
        {
            "anonymous": false,
            "inputs": [
                {
                    "indexed": true,
                    "internalType": "address",
                    "name": "token",
                    "type": "address"
                },
                {
                    "indexed": false,
                    "internalType": "bool",
                    "name": "supported",
                    "type": "bool"
                }
            ],
            "name": "StakingTokenAdded",
            "type": "event"
        },
        {
            "anonymous": false,
            "inputs": [
                {
                    "indexed": true,
                    "internalType": "address",
                    "name": "user",
                    "type": "address"
                },
                {
                    "indexed": false,
                    "internalType": "uint256",
                    "name": "amount",
                    "type": "uint256"
                },
                {
                    "indexed": false,
                    "internalType": "uint256",
                    "name": "rewards",
                    "type": "uint256"
                }
            ],
            "name": "UnstakeExecuted",
            "type": "event"
        },
        {
            "anonymous": false,
            "inputs": [
                {
                    "indexed": true,
                    "internalType": "address",
                    "name": "user",
                    "type": "address"
                },
                {
                    "indexed": false,
                    "internalType": "uint256",
                    "name": "amount",
                    "type": "uint256"
                },
                {
                    "indexed": false,
                    "internalType": "uint256",
                    "name": "availableTime",
                    "type": "uint256"
                }
            ],
            "name": "UnstakeRequested",
            "type": "event"
        },
        {
            "inputs": [],
            "name": "BASIS_POINTS",
            "outputs": [
                {
                    "internalType": "uint256",
                    "name": "",
                    "type": "uint256"
                }
            ],
            "stateMutability": "view",
            "type": "function"
        },
        {
            "inputs": [],
            "name": "SECONDS_PER_YEAR",
            "outputs": [
                {
                    "internalType": "uint256",
                    "name": "",
                    "type": "uint256"
                }
            ],
            "stateMutability": "view",
            "type": "function"
        },
        {
            "inputs": [],
            "name": "UNSTAKE_DELAY",
            "outputs": [
                {
                    "internalType": "uint256",
                    "name": "",
                    "type": "uint256"
                }
            ],
            "stateMutability": "view",
            "type": "function"
        },
        {
            "inputs": [
                {
                    "internalType": "address",
                    "name": "user",
                    "type": "address"
                },
                {
                    "internalType": "address",
                    "name": "token",
                    "type": "address"
                },
                {
                    "internalType": "uint256",
                    "name": "amount",
                    "type": "uint256"
                },
                {
                    "internalType": "bytes",
                    "name": "agentData",
                    "type": "bytes"
                }
            ],
            "name": "aiControlledStake",
            "outputs": [
                {
                    "internalType": "uint256",
                    "name": "",
                    "type": "uint256"
                }
            ],
            "stateMutability": "nonpayable",
            "type": "function"
        },
        {
            "inputs": [],
            "name": "aiController",
            "outputs": [
                {
                    "internalType": "contract AIAgentController",
                    "name": "",
                    "type": "address"
                }
            ],
            "stateMutability": "view",
            "type": "function"
        },
        {
            "inputs": [],
            "name": "baseAnnualRewardRate",
            "outputs": [
                {
                    "internalType": "uint256",
                    "name": "",
                    "type": "uint256"
                }
            ],
            "stateMutability": "view",
            "type": "function"
        },
        {
            "inputs": [],
            "name": "collateralManager",
            "outputs": [
                {
                    "internalType": "contract CollateralManager",
                    "name": "",
                    "type": "address"
                }
            ],
            "stateMutability": "view",
            "type": "function"
        },
        {
            "inputs": [
                {
                    "internalType": "address",
                    "name": "token",
                    "type": "address"
                },
                {
                    "internalType": "uint256",
                    "name": "amount",
                    "type": "uint256"
                },
                {
                    "internalType": "address",
                    "name": "to",
                    "type": "address"
                }
            ],
            "name": "emergencyWithdraw",
            "outputs": [],
            "stateMutability": "nonpayable",
            "type": "function"
        },
        {
            "inputs": [
                {
                    "internalType": "address",
                    "name": "user",
                    "type": "address"
                },
                {
                    "internalType": "address",
                    "name": "token",
                    "type": "address"
                },
                {
                    "internalType": "uint256",
                    "name": "amount",
                    "type": "uint256"
                },
                {
                    "internalType": "uint256",
                    "name": "sourceChainId",
                    "type": "uint256"
                },
                {
                    "internalType": "bytes32",
                    "name": "bridgeId",
                    "type": "bytes32"
                }
            ],
            "name": "executeStakeAfterBridge",
            "outputs": [],
            "stateMutability": "nonpayable",
            "type": "function"
        },
        {
            "inputs": [
                {
                    "internalType": "uint256",
                    "name": "amount",
                    "type": "uint256"
                }
            ],
            "name": "executeUnstake",
            "outputs": [],
            "stateMutability": "nonpayable",
            "type": "function"
        },
        {
            "inputs": [
                {
                    "internalType": "address",
                    "name": "user",
                    "type": "address"
                },
                {
                    "internalType": "address",
                    "name": "token",
                    "type": "address"
                }
            ],
            "name": "getLiquidStakingBalance",
            "outputs": [
                {
                    "internalType": "uint256",
                    "name": "",
                    "type": "uint256"
                }
            ],
            "stateMutability": "view",
            "type": "function"
        },
        {
            "inputs": [],
            "name": "getProtocolStats",
            "outputs": [
                {
                    "internalType": "uint256",
                    "name": "totalValueLocked",
                    "type": "uint256"
                },
                {
                    "internalType": "uint256",
                    "name": "totalRewardsDistributed",
                    "type": "uint256"
                },
                {
                    "internalType": "uint256",
                    "name": "activeStakers",
                    "type": "uint256"
                },
                {
                    "internalType": "uint256",
                    "name": "supportedTokenCount",
                    "type": "uint256"
                }
            ],
            "stateMutability": "view",
            "type": "function"
        },
        {
            "inputs": [
                {
                    "internalType": "address",
                    "name": "user",
                    "type": "address"
                }
            ],
            "name": "getStakingInfo",
            "outputs": [
                {
                    "internalType": "uint256",
                    "name": "stakedAmount",
                    "type": "uint256"
                },
                {
                    "internalType": "uint256",
                    "name": "pendingRewards",
                    "type": "uint256"
                },
                {
                    "internalType": "uint256",
                    "name": "liquidTokenBalance",
                    "type": "uint256"
                },
                {
                    "internalType": "uint256",
                    "name": "collateralValue",
                    "type": "uint256"
                },
                {
                    "internalType": "bool",
                    "name": "isHealthy",
                    "type": "bool"
                },
                {
                    "internalType": "bool",
                    "name": "canUnstake",
                    "type": "bool"
                }
            ],
            "stateMutability": "view",
            "type": "function"
        },
        {
            "inputs": [
                {
                    "internalType": "address",
                    "name": "",
                    "type": "address"
                },
                {
                    "internalType": "address",
                    "name": "",
                    "type": "address"
                }
            ],
            "name": "liquidStakingBalances",
            "outputs": [
                {
                    "internalType": "uint256",
                    "name": "",
                    "type": "uint256"
                }
            ],
            "stateMutability": "view",
            "type": "function"
        },
        {
            "inputs": [],
            "name": "owner",
            "outputs": [
                {
                    "internalType": "address",
                    "name": "",
                    "type": "address"
                }
            ],
            "stateMutability": "view",
            "type": "function"
        },
        {
            "inputs": [],
            "name": "protocolFeeRate",
            "outputs": [
                {
                    "internalType": "uint256",
                    "name": "",
                    "type": "uint256"
                }
            ],
            "stateMutability": "view",
            "type": "function"
        },
        {
            "inputs": [],
            "name": "protocolTreasury",
            "outputs": [
                {
                    "internalType": "address",
                    "name": "",
                    "type": "address"
                }
            ],
            "stateMutability": "view",
            "type": "function"
        },
        {
            "inputs": [],
            "name": "renounceOwnership",
            "outputs": [],
            "stateMutability": "nonpayable",
            "type": "function"
        },
        {
            "inputs": [
                {
                    "internalType": "uint256",
                    "name": "amount",
                    "type": "uint256"
                }
            ],
            "name": "requestUnstake",
            "outputs": [],
            "stateMutability": "nonpayable",
            "type": "function"
        },
        {
            "inputs": [
                {
                    "internalType": "address",
                    "name": "token",
                    "type": "address"
                },
                {
                    "internalType": "bool",
                    "name": "supported",
                    "type": "bool"
                }
            ],
            "name": "setSupportedStakingToken",
            "outputs": [],
            "stateMutability": "nonpayable",
            "type": "function"
        },
        {
            "inputs": [
                {
                    "internalType": "address",
                    "name": "token",
                    "type": "address"
                },
                {
                    "internalType": "uint256",
                    "name": "amount",
                    "type": "uint256"
                }
            ],
            "name": "stakeWithCollateral",
            "outputs": [
                {
                    "internalType": "uint256",
                    "name": "liquidTokens",
                    "type": "uint256"
                }
            ],
            "stateMutability": "nonpayable",
            "type": "function"
        },
        {
            "inputs": [
                {
                    "internalType": "address",
                    "name": "",
                    "type": "address"
                }
            ],
            "name": "stakingPositions",
            "outputs": [
                {
                    "internalType": "uint256",
                    "name": "stakedAmount",
                    "type": "uint256"
                },
                {
                    "internalType": "address",
                    "name": "stakingToken",
                    "type": "address"
                },
                {
                    "internalType": "uint256",
                    "name": "startTime",
                    "type": "uint256"
                },
                {
                    "internalType": "uint256",
                    "name": "lastRewardUpdate",
                    "type": "uint256"
                },
                {
                    "internalType": "uint256",
                    "name": "accumulatedRewards",
                    "type": "uint256"
                },
                {
                    "internalType": "uint256",
                    "name": "rewardRate",
                    "type": "uint256"
                },
                {
                    "internalType": "bool",
                    "name": "isActive",
                    "type": "bool"
                },
                {
                    "internalType": "uint256",
                    "name": "unstakeRequestTime",
                    "type": "uint256"
                },
                {
                    "internalType": "bool",
                    "name": "unstakeRequested",
                    "type": "bool"
                }
            ],
            "stateMutability": "view",
            "type": "function"
        },
        {
            "inputs": [
                {
                    "internalType": "address",
                    "name": "",
                    "type": "address"
                }
            ],
            "name": "supportedStakingTokens",
            "outputs": [
                {
                    "internalType": "bool",
                    "name": "",
                    "type": "bool"
                }
            ],
            "stateMutability": "view",
            "type": "function"
        },
        {
            "inputs": [],
            "name": "totalProtocolRewards",
            "outputs": [
                {
                    "internalType": "uint256",
                    "name": "",
                    "type": "uint256"
                }
            ],
            "stateMutability": "view",
            "type": "function"
        },
        {
            "inputs": [
                {
                    "internalType": "address",
                    "name": "",
                    "type": "address"
                }
            ],
            "name": "totalStakedPerToken",
            "outputs": [
                {
                    "internalType": "uint256",
                    "name": "",
                    "type": "uint256"
                }
            ],
            "stateMutability": "view",
            "type": "function"
        },
        {
            "inputs": [
                {
                    "internalType": "address",
                    "name": "newOwner",
                    "type": "address"
                }
            ],
            "name": "transferOwnership",
            "outputs": [],
            "stateMutability": "nonpayable",
            "type": "function"
        },
        {
            "inputs": [
                {
                    "internalType": "uint256",
                    "name": "newRate",
                    "type": "uint256"
                }
            ],
            "name": "updateBaseRewardRate",
            "outputs": [],
            "stateMutability": "nonpayable",
            "type": "function"
        },
        {
            "inputs": [
                {
                    "internalType": "uint256",
                    "name": "newRate",
                    "type": "uint256"
                }
            ],
            "name": "updateProtocolFeeRate",
            "outputs": [],
            "stateMutability": "nonpayable",
            "type": "function"
        }
    ],
    "bytecode": "60c03461018957601f61174f38819003918201601f19168301916001600160401b0383118484101761018d5780849260609460405283398101031261018957610047816101a1565b906100606040610059602084016101a1565b92016101a1565b9060015f5533156101765760018054336001600160a01b0319821681179092556040519491906001600160a01b03167f8be0079c531659141344cd1fd0a4f28419497f9722a3daafe3b4186f6b6457e05f80a36101f460065560646008556001600160a01b031680158015610165575b8015610154575b610145576080526001600160a01b0390811660a052600980546001600160a01b0319169290911691909117905561159990816101b682396080518181816104e101528181610728015281816109f301528181610fbb01526111b7015260a051818181610cdf0152610f190152f35b63162908e360e11b5f5260045ffd5b506001600160a01b038316156100d7565b506001600160a01b038216156100d0565b631e4fbdf760e01b5f525f60045260245ffd5b5f80fd5b634e487b7160e01b5f52604160045260245ffd5b51906001600160a01b03821682036101895756fe60806040526004361015610011575f80fd5b5f3560e01c806323095721146111e657806323be345c146111a257806344482fad14611165578063445b4a88146108e75780634e7a0d1414610eb2578063551512de14610e6557806358f8588014610e485780636340d55c14610de5578063642a9f3b14610d69578063715018a614610d0e578063764a75c314610cca578063771aceef14610c7b5780637d9c7dfc14610bfe578063803db96d14610bd65780638148580d14610b345780638da5cb5b14610b0c57806397c676901461096f5780639a844f5b146109375780639f346e0b146108e7578063a440989d146108ca578063aa4704f314610617578063abb430d414610447578063bb00e1281461042a578063e1f1c4a71461040e578063e35e5d84146103f1578063e6a69ab8146103d3578063f2fde38b1461034d5763f9d4c1ac1461014d575f80fd5b3461034957602036600319011261034957600435610169611327565b335f52600260205260405f20600881019060ff8254161561033a57600781015462093a8081018091116103265742106103175782815410610308576101ad33611345565b600481018054906101ce6127106101c660085485611314565b048093611307565b935f6101db878654611307565b8086559255805460ff19169055156102f7575b335f90815260056020908152604080832060019590950180546001600160a01b031684529490915290208054610225908690611307565b905560018060a01b038254165f52600460205260405f20610247858254611307565b9055815461026190859033906001600160a01b0316611437565b826102da575b806102a6575b505060405191825260208201527f841f84903302f44349183fc30de9ebbe0abfd081030c2b8ee3373d18fca8a8b660403392a260015f55005b90546009546102d092916102c89183916001600160a01b039182169116611437565b6007546112c0565b6007555f8061026d565b81546102f290849033906001600160a01b0316611437565b610267565b60068201805460ff191690556101ee565b6378de4a6960e11b5f5260045ffd5b632db20b1760e11b5f5260045ffd5b634e487b7160e01b5f52601160045260245ffd5b63777c843f60e11b5f5260045ffd5b5f80fd5b3461034957602036600319011261034957610366611294565b61036e611410565b6001600160a01b031680156103c057600180546001600160a01b0319811683179091556001600160a01b03167f8be0079c531659141344cd1fd0a4f28419497f9722a3daafe3b4186f6b6457e05f80a3005b631e4fbdf760e01b5f525f60045260245ffd5b34610349575f3660031901126103495760206040516301e133808152f35b34610349575f36600319011261034957602060405162093a808152f35b34610349575f3660031901126103495760206040516127108152f35b34610349575f366003190112610349576020600654604051908152f35b346103495760a036600319011261034957610460611294565b6104686112aa565b9060443590610475611327565b6001600160a01b0383165f8181526003602052604090205490939060ff16156106085782156105f9576104dd60206104ad85846113ab565b604051632afbbacb60e01b81526001600160a01b0386166004820152602481019190915291829081906044820190565b03817f00000000000000000000000000000000000000000000000000000000000000006001600160a01b03165afa9081156105ee575f916105bf575b50156105b0578161054e846060937f6c41aa7e729094825168e42377d08ebdccc61777b4a5536d862e805c2d7129739561147a565b60018060a01b031692835f52600560205260405f20855f5260205260405f206105788282546112c0565b9055845f52600460205260405f206105918282546112c0565b905560405190815260643560208201526084356040820152a360015f55005b633a23d82560e01b5f5260045ffd5b6105e1915060203d6020116105e7575b6105d981836112cd565b8101906112ef565b85610519565b503d6105cf565b6040513d5f823e3d90fd5b63162908e360e11b5f5260045ffd5b633dd1b30560e01b5f5260045ffd5b3461034957602036600319011261034957610630611294565b6001600160a01b0381165f81815260026020526040808220905190939290610120810167ffffffffffffffff8111828210176108b65760405284549384825260018060a01b0360018701541691602081019283526002870154604082015260038701549081606082015260048801549060808101918252600589015460a0820190815260ff60068b0154161515938460c084015260ff600860078d01549c60e086019d8e520154169461010084019515158652610877575b5050505f85815260056020908152604080832087516001600160a01b03908116855290835292819020549051634bc8272160e11b815260048101989098527f0000000000000000000000000000000000000000000000000000000000000000909216969194925081602481895afa9485156105ee5788915f9661083c575b50516107b79660209392909161078591906001600160a01b03166113ab565b604051632afbbacb60e01b81526001600160a01b03909316600484015260248301529095869190829081906044820190565b03915afa9384156105ee575f9461081b575b5051151593846107fd575b60c0965060405195865260208601526040850152606084015215156080830152151560a0820152f35b935094519462093a8086018096116103265760c095421015936107d4565b61083591945060203d6020116105e7576105d981836112cd565b92876107c9565b92915094506020823d60201161086f575b8161085a602093836112cd565b81010312610349579051938790610785610766565b3d915061084d565b6108ac9498509161089f6108a49261089564496cebb8009542611307565b9251905190611314565b611314565b0490516112c0565b93878080806106e8565b634e487b7160e01b5f52604160045260245ffd5b34610349575f366003190112610349576020600754604051908152f35b3461034957604036600319011261034957610900611294565b6109086112aa565b6001600160a01b039182165f908152600560209081526040808320949093168252928352819020549051908152f35b34610349576020366003190112610349576001600160a01b03610958611294565b165f526004602052602060405f2054604051908152f35b3461034957604036600319011261034957610988611294565b602435610993611327565b6001600160a01b0382165f8181526003602052604090205460ff16156106085781156105f9576109ef60206109c884866113ab565b604051632afbbacb60e01b8152336004820152602481019190915291829081906044820190565b03817f00000000000000000000000000000000000000000000000000000000000000006001600160a01b03165afa9081156105ee575f91610aed575b50156105b057610a7782602094610a716040516323b872dd60e01b8882015233602482015230604482015283606482015260648152610a6b6084826112cd565b8561150b565b3361147a565b335f526005835260405f20815f52835260405f20610a968382546112c0565b9055805f526004835260405f20610aae8382546112c0565b905560405182815282848201527f9665e4ab1063ca04c66e5339155444746bcb1e40102a8e222ab032ae91e990fb60403392a360015f55604051908152f35b610b06915060203d6020116105e7576105d981836112cd565b84610a2b565b34610349575f366003190112610349576001546040516001600160a01b039091168152602090f35b34610349576020366003190112610349576001600160a01b03610b55611294565b165f52600260205261012060405f2080549060018060a01b036001820154169060028101546003820154600483015460058401549160ff6006860154169360ff600860078801549701541696604051988952602089015260408801526060870152608086015260a0850152151560c084015260e08301521515610100820152f35b34610349575f366003190112610349576009546040516001600160a01b039091168152602090f35b3461034957604036600319011261034957610c17611294565b602435908115158092036103495760207f3cf6e9901b76f2e082c0fd5ee79842490e766071a89f1a08f2020c36e98e329791610c51611410565b60018060a01b031692835f526003825260405f2060ff1981541660ff8316179055604051908152a2005b34610349575f36600319011261034957608060075461016060405190610ca181836112cd565b600a8252601f190190369060200137604051905f825260208201525f60408201525f6060820152f35b34610349575f366003190112610349576040517f00000000000000000000000000000000000000000000000000000000000000006001600160a01b03168152602090f35b34610349575f36600319011261034957610d26611410565b600180546001600160a01b031981169091555f906001600160a01b03167f8be0079c531659141344cd1fd0a4f28419497f9722a3daafe3b4186f6b6457e08280a3005b3461034957602036600319011261034957600435610d85611410565b80158015610dda575b610dcb5760407fc390a98ace15a7bb6bab611eedfdbb2685043b241a869420043cdfb23ccfee5091600654908060065582519182526020820152a1005b6308af88a160e21b5f5260045ffd5b506107d08111610d8e565b3461034957602036600319011261034957600435610e01611410565b6103e88111610e0f57600855005b60405162461bcd60e51b815260206004820152601160248201527008ccaca40e4c2e8ca40e8dede40d0d2ced607b1b6044820152606490fd5b34610349575f366003190112610349576020600854604051908152f35b3461034957606036600319011261034957610e7e611294565b604435906001600160a01b038216820361034957610eb091610e9e611410565b602435916001600160a01b0316611437565b005b3461034957608036600319011261034957610ecb611294565b610ed36112aa565b604435906064359267ffffffffffffffff8411610349573660238501121561034957836004013567ffffffffffffffff81116103495780850190366024830111610349577f00000000000000000000000000000000000000000000000000000000000000006001600160a01b0316330361115657610f4f611327565b6001600160a01b0384165f8181526003602052604090205490949060ff16156106085785156105f9576020610f8787610fb7936113ab565b604051632afbbacb60e01b81526001600160a01b0387166004820152602481019190915291829081906044820190565b03817f00000000000000000000000000000000000000000000000000000000000000006001600160a01b03165afa9081156105ee575f91611137575b50156105b05760018060a01b03831692835f52600260205260405f209260206006549310156110f5575b5060209650600683019060ff8254165f146110c85761103c9150611345565b6110478583546112c0565b82555b6005820155600342910155805f526005845260405f20825f52845260405f206110748482546112c0565b9055815f526004845260405f2061108c8482546112c0565b90557f9665e4ab1063ca04c66e5339155444746bcb1e40102a8e222ab032ae91e990fb604080518581528587820152a360015f55604051908152f35b50858355600180840180546001600160a01b03191687179055426002850155815460ff191617905561104a565b909150602090879003126103495760246020960135906107d0821161112d575b60648210611124575b8761101d565b6064915061111e565b6107d09150611115565b611150915060203d6020116105e7576105d981836112cd565b87610ff3565b63dda553ab60e01b5f5260045ffd5b34610349576020366003190112610349576001600160a01b03611186611294565b165f526003602052602060ff60405f2054166040519015158152f35b34610349575f366003190112610349576040517f00000000000000000000000000000000000000000000000000000000000000006001600160a01b03168152602090f35b3461034957602036600319011261034957600435611202611327565b335f52600260205260405f2060ff6006820154161561128557818154106103085761122c33611345565b60088101600160ff1982541617905560074291015562093a8042018042116103265760405191825260208201527f57e41df54512c76148b5ba9b643d149752b0d35e493b969bd017d0a3fe5228cf60403392a260015f55005b63586ea33760e11b5f5260045ffd5b600435906001600160a01b038216820361034957565b602435906001600160a01b038216820361034957565b9190820180921161032657565b90601f8019910116810190811067ffffffffffffffff8211176108b657604052565b90816020910312610349575180151581036103495790565b9190820391821161032657565b8181029291811591840414171561032657565b60025f54146113365760025f55565b633ee5aeb560e01b5f5260045ffd5b6001600160a01b03165f908152600260205260409020600681015460ff16156113a85760038101906113a1600464496cebb800611396611386865442611307565b61089f8654600588015490611314565b0492019182546112c0565b9055429055565b50565b60018060a01b0316736c3ea9036406852006290770bedfcaba0e23a0e881149081156113f2575b506113ef576107d08102908082046107d014901517156103265790565b90565b731c7d4b196cb0c7b01d743fbc6116a902379c72389150145f6113d2565b6001546001600160a01b0316330361142457565b63118cdaa760e01b5f523360045260245ffd5b60405163a9059cbb60e01b60208201526001600160a01b03929092166024830152604480830193909352918152611478916114736064836112cd565b61150b565b565b6001600160a01b0381165f908152600260205260409020600681018054919493909160ff16156114c5575050906114b36114ba92611345565b82546112c0565b81555b600342910155565b9150918355600183019060018060a01b03166bffffffffffffffffffffffff60a01b825416179055426002830155600160ff1982541617905560065460058201556114bd565b905f602091828151910182855af1156105ee575f513d61155a57506001600160a01b0381163b155b61153a5750565b635274afe760e01b5f9081526001600160a01b0391909116600452602490fd5b6001141561153356fea2646970667358221220c00c10ffb59929eb8ad43ca0d0995a7a9846805b849ca7926720a0fcd77e1a5064736f6c634300081e0033",
    "sourcePath": "/home/phinelipy/Work/hackathons/ethGlobal/EthOnline2025/safestake.ai/smart-contracts/contracts/StakingProxy.sol",
    "compiler": {
        "name": "solc",
        "version": "0.8.30+commit.73712a01"
    },
    "functionHashes": {
        "BASIS_POINTS()": "e1f1c4a7",
        "SECONDS_PER_YEAR()": "e6a69ab8",
        "UNSTAKE_DELAY()": "e35e5d84",
        "aiControlledStake(address,address,uint256,bytes)": "4e7a0d14",
        "aiController()": "764a75c3",
        "baseAnnualRewardRate()": "bb00e128",
        "collateralManager()": "23be345c",
        "emergencyWithdraw(address,uint256,address)": "551512de",
        "executeStakeAfterBridge(address,address,uint256,uint256,bytes32)": "abb430d4",
        "executeUnstake(uint256)": "f9d4c1ac",
        "getLiquidStakingBalance(address,address)": "9f346e0b",
        "getProtocolStats()": "771aceef",
        "getStakingInfo(address)": "aa4704f3",
        "liquidStakingBalances(address,address)": "445b4a88",
        "owner()": "8da5cb5b",
        "protocolFeeRate()": "58f85880",
        "protocolTreasury()": "803db96d",
        "renounceOwnership()": "715018a6",
        "requestUnstake(uint256)": "23095721",
        "setSupportedStakingToken(address,bool)": "7d9c7dfc",
        "stakeWithCollateral(address,uint256)": "97c67690",
        "stakingPositions(address)": "8148580d",
        "supportedStakingTokens(address)": "44482fad",
        "totalProtocolRewards()": "a440989d",
        "totalStakedPerToken(address)": "9a844f5b",
        "transferOwnership(address)": "f2fde38b",
        "updateBaseRewardRate(uint256)": "642a9f3b",
        "updateProtocolFeeRate(uint256)": "6340d55c"
    },
    "gasEstimates": {
        "creation": {
            "codeDepositCost": "1105800",
            "executionCost": "infinite",
            "totalCost": "infinite"
        },
        "external": {
            "BASIS_POINTS()": "651",
            "SECONDS_PER_YEAR()": "695",
            "UNSTAKE_DELAY()": "673",
            "aiControlledStake(address,address,uint256,bytes)": "infinite",
            "aiController()": "infinite",
            "baseAnnualRewardRate()": "2732",
            "collateralManager()": "infinite",
            "emergencyWithdraw(address,uint256,address)": "infinite",
            "executeStakeAfterBridge(address,address,uint256,uint256,bytes32)": "infinite",
            "executeUnstake(uint256)": "infinite",
            "getLiquidStakingBalance(address,address)": "2961",
            "getProtocolStats()": "infinite",
            "getStakingInfo(address)": "infinite",
            "liquidStakingBalances(address,address)": "2631",
            "owner()": "2602",
            "protocolFeeRate()": "2380",
            "protocolTreasury()": "2558",
            "renounceOwnership()": "28250",
            "requestUnstake(uint256)": "infinite",
            "setSupportedStakingToken(address,bool)": "28385",
            "stakeWithCollateral(address,uint256)": "infinite",
            "stakingPositions(address)": "19758",
            "supportedStakingTokens(address)": "2454",
            "totalProtocolRewards()": "2666",
            "totalStakedPerToken(address)": "2772",
            "transferOwnership(address)": "28735",
            "updateBaseRewardRate(uint256)": "28048",
            "updateProtocolFeeRate(uint256)": "24570"
        },
        "internal": {
            "_calculateStakeValueUSD(address,uint256)": "182",
            "_updateRewards(address)": "infinite",
            "_updateStakingPosition(address,address,uint256)": "infinite",
            "_updateStakingPositionWithCustomRate(address,address,uint256,bytes calldata)": "infinite"
        }
    }
}